{
  "abi": [
    {
      "inputs": [
        {
          "internalType": "contract IGLB",
          "name": "_glb",
          "type": "address"
        }
      ],
      "stateMutability": "nonpayable",
      "type": "constructor"
    },
    {
      "inputs": [],
      "name": "FAIR_TRADING_STAGE",
      "outputs": [
        {
          "internalType": "uint256",
          "name": "",
          "type": "uint256"
        }
      ],
      "stateMutability": "view",
      "type": "function"
    },
    {
      "inputs": [],
      "name": "FINISHED_STAGE",
      "outputs": [
        {
          "internalType": "uint256",
          "name": "",
          "type": "uint256"
        }
      ],
      "stateMutability": "view",
      "type": "function"
    },
    {
      "inputs": [],
      "name": "GEAR",
      "outputs": [
        {
          "internalType": "contract IGear",
          "name": "",
          "type": "address"
        }
      ],
      "stateMutability": "view",
      "type": "function"
    },
    {
      "inputs": [],
      "name": "SNIPER_FEE_RECIPIENT",
      "outputs": [
        {
          "internalType": "address",
          "name": "",
          "type": "address"
        }
      ],
      "stateMutability": "view",
      "type": "function"
    },
    {
      "inputs": [],
      "name": "SNIPING_FEE_BPS",
      "outputs": [
        {
          "internalType": "uint256",
          "name": "",
          "type": "uint256"
        }
      ],
      "stateMutability": "view",
      "type": "function"
    },
    {
      "inputs": [],
      "name": "TOTAL_FEE_BPS",
      "outputs": [
        {
          "internalType": "uint256",
          "name": "",
          "type": "uint256"
        }
      ],
      "stateMutability": "view",
      "type": "function"
    },
    {
      "inputs": [],
      "name": "claimETH",
      "outputs": [],
      "stateMutability": "nonpayable",
      "type": "function"
    },
    {
      "inputs": [],
      "name": "claimGEAR",
      "outputs": [],
      "stateMutability": "nonpayable",
      "type": "function"
    },
    {
      "inputs": [],
      "name": "commitETH",
      "outputs": [],
      "stateMutability": "payable",
      "type": "function"
    },
    {
      "inputs": [
        {
          "internalType": "address",
          "name": "",
          "type": "address"
        }
      ],
      "name": "ethCommitted",
      "outputs": [
        {
          "internalType": "uint256",
          "name": "",
          "type": "uint256"
        }
      ],
      "stateMutability": "view",
      "type": "function"
    },
    {
      "inputs": [
        {
          "internalType": "address",
          "name": "_user",
          "type": "address"
        }
      ],
      "name": "gearBalance",
      "outputs": [
        {
          "internalType": "uint256",
          "name": "gearClaim",
          "type": "uint256"
        }
      ],
      "stateMutability": "view",
      "type": "function"
    },
    {
      "inputs": [],
      "name": "gearBought",
      "outputs": [
        {
          "internalType": "uint256",
          "name": "",
          "type": "uint256"
        }
      ],
      "stateMutability": "view",
      "type": "function"
    },
    {
      "inputs": [],
      "name": "glb",
      "outputs": [
        {
          "internalType": "contract IGLB",
          "name": "",
          "type": "address"
        }
      ],
      "stateMutability": "view",
      "type": "function"
    },
    {
      "inputs": [
        {
          "internalType": "uint256",
          "name": "amt",
          "type": "uint256"
        }
      ],
      "name": "rescindEth",
      "outputs": [],
      "stateMutability": "nonpayable",
      "type": "function"
    },
    {
      "inputs": [
        {
          "internalType": "uint256",
          "name": "amt",
          "type": "uint256"
        }
      ],
      "name": "sellGEAR",
      "outputs": [],
      "stateMutability": "nonpayable",
      "type": "function"
    },
    {
      "inputs": [],
      "name": "snipe",
      "outputs": [],
      "stateMutability": "nonpayable",
      "type": "function"
    },
    {
      "inputs": [],
      "name": "stage",
      "outputs": [
        {
          "internalType": "enum Stage",
          "name": "",
          "type": "uint8"
        }
      ],
      "stateMutability": "view",
      "type": "function"
    },
    {
      "inputs": [],
      "name": "totalEthCommitted",
      "outputs": [
        {
          "internalType": "uint256",
          "name": "",
          "type": "uint256"
        }
      ],
      "stateMutability": "view",
      "type": "function"
    },
    {
      "stateMutability": "payable",
      "type": "receive"
    }
  ],
  "bytecode": {
    "object": "0x60c060405234801561001057600080fd5b50604051610fc2380380610fc283398101604081905261002f916100b6565b6001600160a01b03811660808190523360a05260405163095ea7b360e01b81526004810191909152600019602482015273ba3335588d9403515223f109edc4eb7269a9ab5d9063095ea7b390604401600060405180830381600087803b15801561009857600080fd5b505af11580156100ac573d6000803e3d6000fd5b50505050506100e6565b6000602082840312156100c857600080fd5b81516001600160a01b03811681146100df57600080fd5b9392505050565b60805160a051610e7f6101436000396000818161017501526106fa0152600081816102800152818161044f01528181610514015281816105db0152818161066401528181610750015281816109700152610bf10152610e7f6000f3fe60806040526004361061010d5760003560e01c80636f28507c116100955780639e5bc546116100645780639e5bc546146102aa578063b3c358b9146102c0578063b9283ab7146102d6578063c040e6b8146102fe578063d84aa3fe1461032557600080fd5b80636f28507c1461024357806376d078ab146102595780637733674e1461026e57806383a2fcdf146102a257600080fd5b80634953ad59116100dc5780634953ad59146101c4578063569f0c5f146101e45780635fdeebb714610204578063635ebf0a14610219578063672729991461022e57600080fd5b8063096e2801146101195780632d62cb25146101415780633951041e1461016357806339b0ff21146101af57600080fd5b3661011457005b600080fd5b34801561012557600080fd5b5061012e600a81565b6040519081526020015b60405180910390f35b34801561014d57600080fd5b5061016161015c366004610d0e565b610352565b005b34801561016f57600080fd5b506101977f000000000000000000000000000000000000000000000000000000000000000081565b6040516001600160a01b039091168152602001610138565b3480156101bb57600080fd5b506101616104d9565b3480156101d057600080fd5b506101616101df366004610d0e565b610849565b3480156101f057600080fd5b5061012e6101ff366004610d27565b6108c5565b34801561021057600080fd5b5061012e600381565b34801561022557600080fd5b50610161610937565b34801561023a57600080fd5b50610161610aeb565b34801561024f57600080fd5b5061012e61271081565b34801561026557600080fd5b5061012e600481565b34801561027a57600080fd5b506101977f000000000000000000000000000000000000000000000000000000000000000081565b610161610b41565b3480156102b657600080fd5b5061012e60005481565b3480156102cc57600080fd5b5061012e60035481565b3480156102e257600080fd5b5061019773ba3335588d9403515223f109edc4eb7269a9ab5d81565b34801561030a57600080fd5b506002546103189060ff1681565b6040516101389190610d66565b34801561033157600080fd5b5061012e610340366004610d27565b60016020526000908152604090205481565b6002806002805460ff169081111561036c5761036c610d50565b146103925760405162461bcd60e51b815260040161038990610d8e565b60405180910390fd5b600061039d336108c5565b9050808311156103e15760405162461bcd60e51b815260206004820152600f60248201526e3737ba1032b737bab3b41033b2b0b960891b6044820152606401610389565b3360009081526001602052604081205490826103fd8387610dcb565b6104079190610de8565b3360009081526001602052604081208054929350839290919061042b908490610e0a565b909155505060405163439fd49560e11b8152600481018690526000602482015247907f00000000000000000000000000000000000000000000000000000000000000006001600160a01b03169063873fa92a90604401600060405180830381600087803b15801561049b57600080fd5b505af11580156104af573d6000803e3d6000fd5b50479250600091506104c390508383610e0a565b90506104cf3382610b4b565b5050505050505050565b6000806002805460ff16908111156104f3576104f3610d50565b146105105760405162461bcd60e51b815260040161038990610d8e565b60007f00000000000000000000000000000000000000000000000000000000000000006001600160a01b031663d63f82fb6040518163ffffffff1660e01b8152600401602060405180830381865afa158015610570573d6000803e3d6000fd5b505050506040513d601f19601f820116820180604052508101906105949190610e1d565b9050804210156105d95760405162461bcd60e51b815260206004820152601060248201526f18d85b9b9bdd081cdb9a5c19481e595d60821b6044820152606401610389565b7f00000000000000000000000000000000000000000000000000000000000000006001600160a01b031663c040e6b86040518163ffffffff1660e01b8152600401602060405180830381865afa158015610637573d6000803e3d6000fd5b505050506040513d601f19601f8201168201806040525081019061065b9190610e1d565b600203610837577f00000000000000000000000000000000000000000000000000000000000000006001600160a01b031663c33f48fd6040518163ffffffff1660e01b8152600401600060405180830381600087803b1580156106bd57600080fd5b505af11580156106d1573d6000803e3d6000fd5b505050506000612710600a6000546106e99190610dcb565b6106f39190610de8565b905061071f7f000000000000000000000000000000000000000000000000000000000000000082610b4b565b60008160005461072f9190610e0a565b604051632deda9ff60e21b8152600060048201529091506001600160a01b037f0000000000000000000000000000000000000000000000000000000000000000169063b7b6a7fc9083906024016000604051808303818588803b15801561079557600080fd5b505af11580156107a9573d6000803e3d6000fd5b50506040516370a0823160e01b815230600482015273ba3335588d9403515223f109edc4eb7269a9ab5d93506370a0823192506024019050602060405180830381865afa1580156107fe573d6000803e3d6000fd5b505050506040513d601f19601f820116820180604052508101906108229190610e1d565b60035550506002805460ff1916811790555050565b6002805460ff191660011790555b5050565b6000806002805460ff169081111561086357610863610d50565b146108805760405162461bcd60e51b815260040161038990610d8e565b816000808282546108919190610e0a565b909155505033600090815260016020526040812080548492906108b5908490610e0a565b9091555061084590503383610b4b565b60006002806002805460ff16908111156108e1576108e1610d50565b146108fe5760405162461bcd60e51b815260040161038990610d8e565b600080546001600160a01b038516825260016020526040909120546003546109269190610dcb565b6109309190610de8565b9392505050565b6002806002805460ff169081111561095157610951610d50565b1461096e5760405162461bcd60e51b815260040161038990610d8e565b7f00000000000000000000000000000000000000000000000000000000000000006001600160a01b031663c040e6b86040518163ffffffff1660e01b8152600401602060405180830381865afa1580156109cc573d6000803e3d6000fd5b505050506040513d601f19601f820116820180604052508101906109f09190610e1d565b600414610a5a5760405162461bcd60e51b815260206004820152603260248201527f666169722074726164696e6967207374616765206e6f7420656e6465642079656044820152713a161031b0b73737ba103a3930b739b332b960711b6064820152608401610389565b6000610a65336108c5565b33600081815260016020526040808220919091555163a9059cbb60e01b815260048101919091526024810182905290915073ba3335588d9403515223f109edc4eb7269a9ab5d9063a9059cbb90604401600060405180830381600087803b158015610acf57600080fd5b505af1158015610ae3573d6000803e3d6000fd5b505050505050565b6001806002805460ff1690811115610b0557610b05610d50565b14610b225760405162461bcd60e51b815260040161038990610d8e565b3360008181526001602052604081208054919055906108459082610b4b565b610b49610bb8565b565b600080836001600160a01b03168360405160006040518083038185875af1925050503d8060008114610b99576040519150601f19603f3d011682016040523d82523d6000602084013e610b9e565b606091505b508051919350915082610bb15780820182fd5b5050505050565b6000806002805460ff1690811115610bd257610bd2610d50565b14610bef5760405162461bcd60e51b815260040161038990610d8e565b7f00000000000000000000000000000000000000000000000000000000000000006001600160a01b031663c040e6b86040518163ffffffff1660e01b8152600401602060405180830381865afa158015610c4d573d6000803e3d6000fd5b505050506040513d601f19601f82011682018060405250810190610c719190610e1d565b600214610cd15760405162461bcd60e51b815260206004820152602860248201527f63616e20636f6d6d697420657468206f6e6c7920696e20657468206465706f73604482015267697420737461676560c01b6064820152608401610389565b34600080828254610ce29190610e36565b90915550503360009081526001602052604081208054349290610d06908490610e36565b909155505050565b600060208284031215610d2057600080fd5b5035919050565b600060208284031215610d3957600080fd5b81356001600160a01b038116811461093057600080fd5b634e487b7160e01b600052602160045260246000fd5b6020810160038310610d8857634e487b7160e01b600052602160045260246000fd5b91905290565b6020808252600d908201526c696e76616c696420737461676560981b604082015260600190565b634e487b7160e01b600052601160045260246000fd5b8082028115828204841417610de257610de2610db5565b92915050565b600082610e0557634e487b7160e01b600052601260045260246000fd5b500490565b81810381811115610de257610de2610db5565b600060208284031215610e2f57600080fd5b5051919050565b80820180821115610de257610de2610db556fea264697066735822122046831088331c1a47930d26318f54b6a82706cb90fa5637c1b6c624ce6a3a04ae64736f6c63430008110033",
    "linkReferences": {}
  },
  "methodIdentifiers": {
    "FAIR_TRADING_STAGE()": "5fdeebb7",
    "FINISHED_STAGE()": "76d078ab",
    "GEAR()": "b9283ab7",
    "SNIPER_FEE_RECIPIENT()": "3951041e",
    "SNIPING_FEE_BPS()": "096e2801",
    "TOTAL_FEE_BPS()": "6f28507c",
    "claimETH()": "67272999",
    "claimGEAR()": "635ebf0a",
    "commitETH()": "83a2fcdf",
    "ethCommitted(address)": "d84aa3fe",
    "gearBalance(address)": "569f0c5f",
    "gearBought()": "b3c358b9",
    "glb()": "7733674e",
    "rescindEth(uint256)": "4953ad59",
    "sellGEAR(uint256)": "2d62cb25",
    "snipe()": "39b0ff21",
    "stage()": "c040e6b8",
    "totalEthCommitted()": "9e5bc546"
  },
  "id": 16
}